:020000040000FA
:100000000C9468000C9490000C9490000C94900058
:100010000C9490000C9490000C9490000C94900020
:100020000C9490000C9490000C9490000C94900010
:100030000C9490000C9490000C9490000C94900000
:100040000C9434020C9490000C94A4020C947E0244
:100050000C9490000C9490000C9490000C949000E0
:100060000C9490000C949000005EBCE2613FDD8334
:10007000C29C7E20A3FD1F41009D23BE46DB65F888
:100080008C11AF32CA57E974000000002500280027
:100090002B0000000000240027002A0000000000C0
:1000A00023002600290004040404040404040202BA
:1000B00002020202030303030303010204081020E7
:1000C0004080010204081020010204081020D6021A
:1000D00011241FBECFEFD8E0DEBFCDBF11E0A0E0FE
:1000E000B1E0ECEDFAE002C005900D92AA39B1073B
:1000F000D9F722E0AAE9B1E001C01D92AE34B207FF
:10010000E1F710E0C8E6D0E004C02197FE010E94AC
:100110006605C736D107C9F70E9467030C946C05C2
:100120000C94000090914002E0914102F091420253
:10013000292F209580FF14C0F89482818223828326
:100140008181892B8183A3E2B0E01197F1F782814D
:10015000982B9283789487ED90E00197F1F70895BA
:10016000F8948281822382838181892B8183AFEFFE
:10017000B0E01197F1F78281982B928378948FE009
:1001800090E0EBCF80914002E0914102F091420279
:10019000F8949181982B91832281382F30952323D5
:1001A0002283A7E0B0E01197F1F791819323918327
:1001B000A3E2B0E01197F1F790817894EFECF0E0D2
:1001C0003197F1F7982381E009F480E008953FB773
:1001D000F89480919F019091A001A091A101B0910C
:1001E000A20126B5A89B05C02F3F19F00196A11DBD
:1001F000B11D3FBFBA2FA92F982F8827BC01CD0171
:10020000620F711D811D911D42E0660F771F881FCF
:10021000991F4A95D1F70895AF92BF92CF92DF927E
:10022000EF92FF920F931F93CF93DF936C017B01AB
:100230008B01040F151FEB015E01AE18BF08C0173C
:10024000D10759F06991D601ED91FC910190F081AF
:10025000E02DC6010995892B79F7C501DF91CF9172
:100260001F910F91FF90EF90DF90CF90BF90AF90D4
:100270000895FC01538D448D252F30E0842F90E0AC
:10028000821B930B541710F0CF9608950197089591
:10029000FC01918D828D981761F0A28DAE0FBF2F5A
:1002A000B11D5D968C91928D9F5F9F73928F90E0B0
:1002B00008958FEF9FEF0895FC01918D828D98171F
:1002C00031F0828DE80FF11D858D90E008958FEF5C
:1002D0009FEF0895FC01918D228D892F90E0805C25
:1002E0009F4F821B91098F739927089583EA91E0AC
:1002F0000E946A0121E0892B09F420E0822F0895F1
:1003000080E090E0892B29F00E94760181110C9405
:1003100000000895FC01A48DA80FB92FB11DA35AA8
:10032000BF4F2C91848D90E001968F739927848F15
:10033000A689B7892C93A089B1898C918370806438
:100340008C93938D848D981306C00288F389E02DD9
:1003500080818F7D80830895EF92FF920F931F938A
:10036000CF93DF93EC0181E0888F9B8D8C8D981368
:100370001AC0E889F989808185FF15C09FB7F89474
:10038000EE89FF896083E889F989808183708064C0
:1003900080839FBF81E090E0DF91CF911F910F910B
:1003A000FF90EF900895F62E0B8D10E00F5F1F4F1A
:1003B0000F731127E02E8C8D8E110CC00FB607FC29
:1003C000FACFE889F989808185FFF5CFCE010E94B7
:1003D0008A01F1CFEB8DEC0FFD2FF11DE35AFF4F9A
:1003E000F0829FB7F8940B8FEA89FB898081806245
:1003F000CFCFCF93DF93EC01888D8823B9F0AA8902
:10040000BB89E889F9898C9185FD03C0808186FDCF
:100410000DC00FB607FCF7CF8C9185FFF2CF80811E
:1004200085FFEDCFCE010E948A01E9CFDF91CF9108
:100430000895FC0101900020E9F73197AF01481BB6
:10044000590BBC0183EA91E00C940C01CF93DF932C
:100450000E941902EC0182E191E00E9419028C0FC6
:100460009D1FDF91CF9108951F920F920FB60F92AB
:1004700011242F933F938F939F93AF93BF938091BA
:100480009B0190919C01A0919D01B0919E013091A2
:100490009A0123E0230F2D3758F50196A11DB11DB8
:1004A00020939A0180939B0190939C01A0939D01BE
:1004B000B0939E0180919F019091A001A091A10114
:1004C000B091A2010196A11DB11D80939F0190934F
:1004D000A001A093A101B093A201BF91AF919F9100
:1004E0008F913F912F910F900FBE0F901F901895F5
:1004F00026E8230F0296A11DB11DD2CF1F920F92A5
:100500000FB60F9211242F933F934F935F936F93E6
:100510007F938F939F93AF93BF93EF93FF9383EA60
:1005200091E00E948A01FF91EF91BF91AF919F915D
:100530008F917F916F915F914F913F912F910F908C
:100540000FBE0F901F9018951F920F920FB60F922B
:1005500011242F938F939F93EF93FF93E091B30117
:10056000F091B4018081E091B901F091BA0182FD6E
:100570001BC090818091BC018F5F8F732091BD0162
:10058000821741F0E091BC01F0E0ED55FE4F958FF0
:100590008093BC01FF91EF919F918F912F910F90CC
:1005A0000FBE0F901F9018958081F4CFCF93DF93EB
:1005B0001092A6011092A50188EE93E0A0E0B0E0B1
:1005C0008093A7019093A801A093A901B093AA01D9
:1005D00084E091E09093A4018093A30185EC90E0E6
:1005E0009093B0018093AF0184EC90E09093B201BE
:1005F0008093B10180EC90E09093B4018093B301BB
:1006000081EC90E09093B6018093B50182EC90E08C
:100610009093B8018093B70186EC90E09093BA0173
:100620008093B9011092BC011092BD011092BE01DD
:100630001092BF014CEB50E0FA01649188EA90E01F
:10064000FC0124912223C1F030E0220F331FF90175
:10065000EE56FF4FA591B491F901E857FF4FC591B0
:10066000D4917FB7F8943C91262F209532233C9368
:100670003881232328837FBFFA01449140934002AD
:10068000FC018491E82FF0E0EE0FFF1FE456FF4FCE
:1006900085919491909342028093410210924B0273
:1006A00010924D0210924C0210924A02109249028E
:1006B0001092480210924702109246021092450290
:1006C0001092440210924302DF91CF910895CF938C
:1006D000DF93CDB7DEB7A9970FB6F894DEBF0FBE94
:1006E000CDBF789484B5826084BD84B5816084BDBB
:1006F00085B5826085BD85B5816085BD80916E00C0
:10070000816080936E0010928100809181008260F0
:10071000809381008091810081608093810080912D
:1007200080008160809380008091B100846080931C
:10073000B1008091B00081608093B00080917A0018
:10074000846080937A0080917A00826080937A003E
:1007500080917A00816080937A0080917A0080682D
:1007600080937A001092C100E091B301F091B4013E
:1007700082E08083E091AF01F091B0011082E091BE
:10078000B101F091B2018FEC80831092BB01E09136
:10079000B701F091B80186E08083E091B501F09156
:1007A000B601808180618083E091B501F091B6014E
:1007B000808188608083E091B501F091B6018081ED
:1007C00080688083E091B501F091B60180818F7DD2
:1007D000808385E191E00E94260243E6642E46E094
:1007E000742E5E012AE2A20EB11C50E0852E50E06C
:1007F000952E80914D02882309F450C010924B022F
:1008000010924D0210924C0288E391E00E94260261
:1008100010924B0210924D0210924C0210924A021A
:10082000109249021092480210924702109246021A
:100830001092450210924402109243020E94E70077
:100840001B012C013AEFC32ED12CE12CF12C0E947C
:10085000E7006219730984099509683E73408105B0
:100860009105A8F3B1E0CB1AD108E108F108E8EE50
:100870002E0EE3E03E1E411C511CC114D104E104C4
:10088000F10429F78114910409F4B3CF0E94760191
:10089000882309F4AECF0E940000ABCF80914002C4
:1008A000E0914102F0914202F8949181282F209525
:1008B0009223918378943DE7315009F49FCFA3E0D0
:1008C000B0E01197F1F790819823B1F3F8949281F9
:1008D000922392839181982B91837894ABE7B7E030
:1008E0001197F1F7F894918192239183A3E1B1E0FC
:1008F0001197F1F790817894F3013197F1F78923FB
:1009000009F07CCF08E010E0FF24F39481E09F2DF4
:10091000907F09F480E00E949200FF0C01501109C1
:10092000A9F7F894E0914102F091420291818091FF
:100930004002809598239183E0914102F091420218
:10094000928189238283789401E0E12CD12C11E0FB
:100950000E94C200F82E0E94C20091E0F91270C0FD
:10096000813009F08CC0113408F448CFD0924B028A
:10097000D11003C0B1E0B0934D02809143028823AF
:1009800009F43CCFE3E4F2E08E010E5D1F4F7801E5
:100990008191D7018D937D01AA15BB05C9F789E522
:1009A00091E00E9419026801D6012D906D01BFE00F
:1009B000B21520F084E691E00E941902312C512CEE
:1009C000412C19A2CE018196B201A1014F70552789
:1009D0006627772724E056944794379427942A95DE
:1009E000D1F74A300CF061C0405DFC014293CF0169
:1009F000211431044104510439F7EF2B11F00E9406
:100A00001902CE14DF0481F682E191E00E941902FE
:100A100098E0E0E0915009F44AC0D8018D918D0131
:100A20008E27E82FEF70F0E0E859FF4F2491E82F70
:100A3000E295EF70F0E0E858FF4FE491E227EACF4B
:100A4000EE2DF0E0F81211C080914B021817A8F4B7
:100A5000DF01A05CBD4F13968C91802381F4F12CB3
:100A6000193010F410934C02D12EE05CFD4F8381BD
:100A7000902F9095892383830BC08113F0CFEE2DA7
:100A8000F0E0E05CFD4F8381802B8383FF24F394AF
:100A90008F2D0E9492001F5F000F11F4E39401E07C
:100AA000A7E0AE1508F054CF5ECF495C9ECF89A574
:100AB0008E1729F086E691E00E942602E3CE8AA1F5
:100AC000883209F0DFCE8DE791E0F6CFEE0FFF1F01
:100AD0000590F491E02D0994F894FFCF00000000F8
:100AE000AC010C013901F9016A0148015C010D0AF0
:100AF000005374617274652044533138423230209F
:100B0000416472657373656E2D5363616E6E6572B9
:100B10002E2E2E004B65696E6520776569746572AF
:100B2000656E20476572C3A4746520676566756E3F
:100B300064656E2E00476566756E64656E3A2000CA
:100B4000300043524320697374206E6963687420D7
:100B500067C3BC6C7469672100202D3E204453316B
:100B6000384232302053656E736F722065726B614C
:060B70006E6E742E000001
:107E0000112484B714BE81FFF0D085E080938100F7
:107E100082E08093C00088E18093C10086E0809377
:107E2000C20080E18093C4008EE0C9D0259A86E02C
:107E300020E33CEF91E0309385002093840096BBD3
:107E4000B09BFECF1D9AA8958150A9F7CC24DD24C4
:107E500088248394B5E0AB2EA1E19A2EF3E0BF2EE7
:107E6000A2D0813461F49FD0082FAFD0023811F036
:107E7000013811F484E001C083E08DD089C08234E0
:107E800011F484E103C0853419F485E0A6D080C0E4
:107E9000853579F488D0E82EFF2485D0082F10E0AE
:107EA000102F00270E291F29000F111F8ED06801E7
:107EB0006FC0863521F484E090D080E0DECF843638
:107EC00009F040C070D06FD0082F6DD080E0C81688
:107ED00080E7D80618F4F601B7BEE895C0E0D1E017
:107EE00062D089930C17E1F7F0E0CF16F0E7DF06D8
:107EF00018F0F601B7BEE89568D007B600FCFDCFD4
:107F0000A601A0E0B1E02C9130E011968C91119780
:107F100090E0982F8827822B932B1296FA010C0160
:107F200087BEE89511244E5F5F4FF1E0A038BF0790
:107F300051F7F601A7BEE89507B600FCFDCF97BE46
:107F4000E89526C08437B1F42ED02DD0F82E2BD052
:107F50003CD0F601EF2C8F010F5F1F4F84911BD097
:107F6000EA94F801C1F70894C11CD11CFA94CF0C13
:107F7000D11C0EC0853739F428D08EE10CD085E9AC
:107F80000AD08FE07ACF813511F488E018D01DD067
:107F900080E101D065CF982F8091C00085FFFCCF94
:107FA0009093C60008958091C00087FFFCCF809118
:107FB000C00084FD01C0A8958091C6000895E0E648
:107FC000F0E098E1908380830895EDDF803219F02E
:107FD00088E0F5DFFFCF84E1DECF1F93182FE3DFCA
:107FE0001150E9F7F2DF1F91089580E0E8DFEE27F6
:047FF000FF270994CA
:027FFE00040479
:00000001FF
